{
    "contractName": "CryptoTecho",
    "abi": [
        {
            "inputs": [
                {
                    "internalType": "address",
                    "name": "_daiaddress",
                    "type": "address"
                }
            ],
            "stateMutability": "nonpayable",
            "type": "constructor"
        },
        {
            "anonymous": false,
            "inputs": [
                {
                    "indexed": true,
                    "internalType": "address",
                    "name": "previousOwner",
                    "type": "address"
                },
                {
                    "indexed": true,
                    "internalType": "address",
                    "name": "newOwner",
                    "type": "address"
                }
            ],
            "name": "OwnershipTransferred",
            "type": "event"
        },
        {
            "inputs": [
                {
                    "internalType": "uint256",
                    "name": "daiAmount",
                    "type": "uint256"
                }
            ],
            "name": "activate",
            "outputs": [],
            "stateMutability": "payable",
            "type": "function"
        },
        {
            "inputs": [],
            "name": "cancelContract",
            "outputs": [],
            "stateMutability": "nonpayable",
            "type": "function"
        },
        {
            "inputs": [],
            "name": "checkDaiBalance",
            "outputs": [
                {
                    "internalType": "uint256",
                    "name": "",
                    "type": "uint256"
                }
            ],
            "stateMutability": "view",
            "type": "function"
        },
        {
            "inputs": [],
            "name": "checkRemainingDuration",
            "outputs": [
                {
                    "internalType": "uint256",
                    "name": "",
                    "type": "uint256"
                }
            ],
            "stateMutability": "view",
            "type": "function"
        },
        {
            "inputs": [],
            "name": "collectRent",
            "outputs": [],
            "stateMutability": "nonpayable",
            "type": "function"
        },
        {
            "inputs": [],
            "name": "extract",
            "outputs": [],
            "stateMutability": "nonpayable",
            "type": "function"
        },
        {
            "inputs": [],
            "name": "owner",
            "outputs": [
                {
                    "internalType": "address",
                    "name": "",
                    "type": "address"
                }
            ],
            "stateMutability": "view",
            "type": "function"
        },
        {
            "inputs": [],
            "name": "renounceOwnership",
            "outputs": [],
            "stateMutability": "nonpayable",
            "type": "function"
        },
        {
            "inputs": [
                {
                    "internalType": "address",
                    "name": "newOwner",
                    "type": "address"
                }
            ],
            "name": "transferOwnership",
            "outputs": [],
            "stateMutability": "nonpayable",
            "type": "function"
        }
    ],
    "bytecode": "60c0604052601a60808190527f636f6e74726163742061637469766174696f6e206661696c656400000000000060a090815261003e9160049190610193565b5060408051808201909152601a8082527f636f6e747261637420697320616c726561647920616374697665000000000000602090920191825261008391600591610193565b5034801561009057600080fd5b50604051610b42380380610b428339810160408190526100af9161022c565b6100b833610143565b600180546001600160a01b0383166001600160a01b031980831682178455600380548216737e2406479657bda15731cad59d16242eed3d508217905560028054909116732f9c819348f8c5ca2642f40a8c32a7d0b0158aa017905582916001600160a81b03191617600160a01b8202179055505060186006556301e185586009556001600a55610295565b600080546001600160a01b038381166001600160a01b0319831681178455604051919092169283917f8be0079c531659141344cd1fd0a4f28419497f9722a3daafe3b4186f6b6457e09190a35050565b82805461019f9061025a565b90600052602060002090601f0160209004810192826101c15760008555610207565b82601f106101da57805160ff1916838001178555610207565b82800160010185558215610207579182015b828111156102075782518255916020019190600101906101ec565b50610213929150610217565b5090565b5b808211156102135760008155600101610218565b60006020828403121561023d578081fd5b81516001600160a01b0381168114610253578182fd5b9392505050565b600181811c9082168061026e57607f821691505b6020821081141561028f57634e487b7160e01b600052602260045260246000fd5b50919050565b61089e806102a46000396000f3fe6080604052600436106100865760003560e01c8063715018a611610059578063715018a6146100f45780638da5cb5b14610109578063b260c42a14610131578063f2fde38b14610144578063fb2f895d1461016457600080fd5b80631e83cdab1461008b5780632b68bb2d146100a25780632e7e46a9146100b757806358151f36146100cc575b600080fd5b34801561009757600080fd5b506100a0610179565b005b3480156100ae57600080fd5b506100a0610269565b3480156100c357600080fd5b506100a061032b565b3480156100d857600080fd5b506100e1610344565b6040519081526020015b60405180910390f35b34801561010057600080fd5b506100a0610366565b34801561011557600080fd5b506000546040516001600160a01b0390911681526020016100eb565b6100a061013f3660046106d9565b61039a565b34801561015057600080fd5b506100a061015f366004610692565b6104fa565b34801561017057600080fd5b506100e1610595565b6000546001600160a01b031633146101ac5760405162461bcd60e51b81526004016101a3906107af565b60405180910390fd5b60006101b6610595565b6001549091506001600160a01b03166323b872dd306101dd6000546001600160a01b031690565b6040516001600160e01b031960e085901b1681526001600160a01b03928316600482015291166024820152604481018490526064015b602060405180830381600087803b15801561022d57600080fd5b505af1158015610241573d6000803e3d6000fd5b505050506040513d601f19601f8201168201806040525081019061026591906106b9565b5050565b6000546001600160a01b031633146102935760405162461bcd60e51b81526004016101a3906107af565b6000600154600160a01b900460ff1660028111156102c157634e487b7160e01b600052602160045260246000fd5b146102cb57600080fd5b6001805460ff60a01b1916600160a11b17905560006102e8610611565b6001546003546040516323b872dd60e01b81523060048201526001600160a01b0391821660248201526044810184905292935016906323b872dd90606401610213565b6002546001600160a01b0316331461034257600080fd5b565b60004260075461035491906107e4565b600854610361919061083b565b905090565b6000546001600160a01b031633146103905760405162461bcd60e51b81526004016101a3906107af565b6103426000610642565b6003546001600160a01b031633146103b157600080fd5b60065481146004906103d65760405162461bcd60e51b81526004016101a39190610709565b5060018054600160a01b900460ff16600281111561040457634e487b7160e01b600052602160045260246000fd5b146005906104255760405162461bcd60e51b81526004016101a39190610709565b506001546040516323b872dd60e01b8152336004820152306024820152604481018390526000916001600160a01b0316906323b872dd90606401602060405180830381600087803b15801561047957600080fd5b505af115801561048d573d6000803e3d6000fd5b505050506040513d601f19601f820116820180604052508101906104b191906106b9565b90506004816104d35760405162461bcd60e51b81526004016101a39190610709565b506001805460ff60a01b191690554260078190556009546104f3916107e4565b6008555050565b6000546001600160a01b031633146105245760405162461bcd60e51b81526004016101a3906107af565b6001600160a01b0381166105895760405162461bcd60e51b815260206004820152602660248201527f4f776e61626c653a206e6577206f776e657220697320746865207a65726f206160448201526564647265737360d01b60648201526084016101a3565b61059281610642565b50565b6001546040516370a0823160e01b81523060048201526000916001600160a01b0316906370a082319060240160206040518083038186803b1580156105d957600080fd5b505afa1580156105ed573d6000803e3d6000fd5b505050506040513d601f19601f8201168201806040525081019061036191906106f1565b60008061061c610595565b90506000612710600a5483610631919061081c565b61063b91906107fc565b9392505050565b600080546001600160a01b038381166001600160a01b0319831681178455604051919092169283917f8be0079c531659141344cd1fd0a4f28419497f9722a3daafe3b4186f6b6457e09190a35050565b6000602082840312156106a3578081fd5b81356001600160a01b038116811461063b578182fd5b6000602082840312156106ca578081fd5b8151801515811461063b578182fd5b6000602082840312156106ea578081fd5b5035919050565b600060208284031215610702578081fd5b5051919050565b6000602080835281845483600182811c91508083168061072a57607f831692505b85831081141561074857634e487b7160e01b87526022600452602487fd5b8786018381526020018180156107655760018114610776576107a0565b60ff198616825287820196506107a0565b60008b815260209020895b8681101561079a57815484820152908501908901610781565b83019750505b50949998505050505050505050565b6020808252818101527f4f776e61626c653a2063616c6c6572206973206e6f7420746865206f776e6572604082015260600190565b600082198211156107f7576107f7610852565b500190565b60008261081757634e487b7160e01b81526012600452602481fd5b500490565b600081600019048311821515161561083657610836610852565b500290565b60008282101561084d5761084d610852565b500390565b634e487b7160e01b600052601160045260246000fdfea264697066735822122081091152200c860141d123b8b4bfb307c3eccce234b7ff7c9e1f1afe5a2b944a64736f6c63430008040033",
    "sourcePath": "c:/code/sol1/contracts/CryptoTecho.sol",
    "compiler": {
        "name": "solc",
        "version": "0.8.4+commit.c7e474f2"
    },
    "functionHashes": {
        "activate(uint256)": "b260c42a",
        "cancelContract()": "2b68bb2d",
        "checkDaiBalance()": "fb2f895d",
        "checkRemainingDuration()": "58151f36",
        "collectRent()": "2e7e46a9",
        "extract()": "1e83cdab",
        "owner()": "8da5cb5b",
        "renounceOwnership()": "715018a6",
        "transferOwnership(address)": "f2fde38b"
    },
    "gasEstimates": {
        "creation": {
            "codeDepositCost": "441200",
            "executionCost": "infinite",
            "totalCost": "infinite"
        },
        "external": {
            "activate(uint256)": "infinite",
            "cancelContract()": "infinite",
            "checkDaiBalance()": "infinite",
            "checkRemainingDuration()": "2013",
            "collectRent()": "1029",
            "extract()": "infinite",
            "owner()": "1023",
            "renounceOwnership()": "23414",
            "transferOwnership(address)": "23640"
        },
        "internal": {
            "getCancellationCommission()": "infinite"
        }
    }
}