{
    "contractName": "CryptoTecho",
    "abi": [
        {
            "inputs": [
                {
                    "internalType": "contract IERC20",
                    "name": "_daiInstance",
                    "type": "address"
                },
                {
                    "internalType": "enum CommissionType",
                    "name": "_commissionType",
                    "type": "uint8"
                },
                {
                    "internalType": "uint256",
                    "name": "_contractDaiAmount",
                    "type": "uint256"
                }
            ],
            "stateMutability": "nonpayable",
            "type": "constructor"
        },
        {
            "anonymous": false,
            "inputs": [
                {
                    "indexed": true,
                    "internalType": "address",
                    "name": "previousOwner",
                    "type": "address"
                },
                {
                    "indexed": true,
                    "internalType": "address",
                    "name": "newOwner",
                    "type": "address"
                }
            ],
            "name": "OwnershipTransferred",
            "type": "event"
        },
        {
            "inputs": [
                {
                    "internalType": "uint256",
                    "name": "daiAmount",
                    "type": "uint256"
                }
            ],
            "name": "activate",
            "outputs": [],
            "stateMutability": "payable",
            "type": "function"
        },
        {
            "inputs": [],
            "name": "checkDaiBalance",
            "outputs": [
                {
                    "internalType": "uint256",
                    "name": "",
                    "type": "uint256"
                }
            ],
            "stateMutability": "view",
            "type": "function"
        },
        {
            "inputs": [],
            "name": "daiInstance",
            "outputs": [
                {
                    "internalType": "contract IERC20",
                    "name": "",
                    "type": "address"
                }
            ],
            "stateMutability": "view",
            "type": "function"
        },
        {
            "inputs": [],
            "name": "owner",
            "outputs": [
                {
                    "internalType": "address",
                    "name": "",
                    "type": "address"
                }
            ],
            "stateMutability": "view",
            "type": "function"
        },
        {
            "inputs": [],
            "name": "renounceOwnership",
            "outputs": [],
            "stateMutability": "nonpayable",
            "type": "function"
        },
        {
            "inputs": [
                {
                    "internalType": "address",
                    "name": "newOwner",
                    "type": "address"
                }
            ],
            "name": "transferOwnership",
            "outputs": [],
            "stateMutability": "nonpayable",
            "type": "function"
        }
    ],
    "bytecode": "608060405234801561001057600080fd5b5060405161061d38038061061d83398101604081905261002f916100fa565b610038336100aa565b600180546001600160a01b0385166001600160a01b03198216811783558492916001600160a81b03191617600160a01b838381111561008757634e487b7160e01b600052602160045260246000fd5b02179055506001805460ff60a81b1916600160a81b1790556002555061014a9050565b600080546001600160a01b038381166001600160a01b0319831681178455604051919092169283917f8be0079c531659141344cd1fd0a4f28419497f9722a3daafe3b4186f6b6457e09190a35050565b60008060006060848603121561010e578283fd5b83516001600160a01b0381168114610124578384fd5b602085015190935060028110610138578283fd5b80925050604084015190509250925092565b6104c4806101596000396000f3fe6080604052600436106100555760003560e01c8063715018a61461005a5780638da5cb5b14610071578063b260c42a146100a8578063b4c42f37146100bb578063f2fde38b146100db578063fb2f895d146100fb575b600080fd5b34801561006657600080fd5b5061006f61011e565b005b34801561007d57600080fd5b506000546001600160a01b03165b6040516001600160a01b0390911681526020015b60405180910390f35b61006f6100b636600461045e565b610189565b3480156100c757600080fd5b5060015461008b906001600160a01b031681565b3480156100e757600080fd5b5061006f6100f6366004610410565b610274565b34801561010757600080fd5b5061011061033f565b60405190815260200161009f565b6000546001600160a01b0316331461017d5760405162461bcd60e51b815260206004820181905260248201527f4f776e61626c653a2063616c6c6572206973206e6f7420746865206f776e657260448201526064015b60405180910390fd5b61018760006103c0565b565b6001546040516323b872dd60e01b8152336004820152306024820152604481018390526000916001600160a01b0316906323b872dd90606401602060405180830381600087803b1580156101dc57600080fd5b505af11580156101f0573d6000803e3d6000fd5b505050506040513d601f19601f82011682018060405250810190610214919061043e565b9050806102635760405162461bcd60e51b815260206004820152601a60248201527f636f6e74726163742061637469766174696f6e206661696c65640000000000006044820152606401610174565b50506001805460ff60a81b19169055565b6000546001600160a01b031633146102ce5760405162461bcd60e51b815260206004820181905260248201527f4f776e61626c653a2063616c6c6572206973206e6f7420746865206f776e65726044820152606401610174565b6001600160a01b0381166103335760405162461bcd60e51b815260206004820152602660248201527f4f776e61626c653a206e6577206f776e657220697320746865207a65726f206160448201526564647265737360d01b6064820152608401610174565b61033c816103c0565b50565b6001546040516370a0823160e01b81523060048201526000916001600160a01b0316906370a082319060240160206040518083038186803b15801561038357600080fd5b505afa158015610397573d6000803e3d6000fd5b505050506040513d601f19601f820116820180604052508101906103bb9190610476565b905090565b600080546001600160a01b038381166001600160a01b0319831681178455604051919092169283917f8be0079c531659141344cd1fd0a4f28419497f9722a3daafe3b4186f6b6457e09190a35050565b600060208284031215610421578081fd5b81356001600160a01b0381168114610437578182fd5b9392505050565b60006020828403121561044f578081fd5b81518015158114610437578182fd5b60006020828403121561046f578081fd5b5035919050565b600060208284031215610487578081fd5b505191905056fea26469706673582212205a0f59eb6a0dff4f73a94af564073e8679d045820909a9bdad59d17ceabe9b9a64736f6c63430008040033",
    "sourcePath": "c:/code/sol1/contracts/CryptoTecho.sol",
    "compiler": {
        "name": "solc",
        "version": "0.8.4+commit.c7e474f2"
    },
    "functionHashes": {
        "activate(uint256)": "b260c42a",
        "checkDaiBalance()": "fb2f895d",
        "daiInstance()": "b4c42f37",
        "owner()": "8da5cb5b",
        "renounceOwnership()": "715018a6",
        "transferOwnership(address)": "f2fde38b"
    },
    "gasEstimates": {
        "creation": {
            "codeDepositCost": "244000",
            "executionCost": "infinite",
            "totalCost": "infinite"
        },
        "external": {
            "activate(uint256)": "infinite",
            "checkDaiBalance()": "infinite",
            "daiInstance()": "1070",
            "owner()": "1009",
            "renounceOwnership()": "23392",
            "transferOwnership(address)": "23640"
        }
    }
}